:100000000C945D000C9485000C9485000C94850084
:100010000C9485000C9485000C9485000C9485004C
:100020000C9485000C9485000C9485000C9485003C
:100030000C9485000C9485000C9485000C9485002C
:100040000C946E010C9485000C9497040C94C904D4
:100050000C9485000C9485000C9485000C9485000C
:100060000C9485000C94850000000008000201003B
:100070000003040700000000000000000102040863
:100080001020408001020408102001020408102002
:10009000040404040404040402020202020203032E
:1000A0000303030300000000250028002B000000CC
:1000B0000000240027002A00F90411241FBECFEFFE
:1000C000D8E0DEBFCDBF11E0A0E0B1E0E2EDFCE0A2
:1000D00002C005900D92A036B107D9F722E0A0E644
:1000E000B1E001C01D92A231B207E1F710E0CAEB06
:1000F000D0E004C02297FE010E946306C83BD107EE
:10010000C9F70E942F060C9467060C94000026E0A5
:1001100040E855E260E070E085E791E00E94350438
:1001200061E089E00E94E30261E08AE00E94E3026C
:1001300061E08BE00C94E3028EE00E943E0290931B
:1001400065018093640165E070E080E090E00E94CA
:10015000DB018FE00E943E02909363018093620175
:1001600065E070E080E090E00E94DB0180E10E94A9
:100170003E02909361018093600165E070E080E051
:1001800090E00E94DB0161E071E085E791E00E9470
:100190007A0560916401709165014AE050E085E75D
:1001A00091E00E9426066BE171E085E791E00E94F4
:1001B0007A0560916201709163014AE050E085E741
:1001C00091E00E94260665E271E085E791E00E94D9
:1001D0007A0560916001709161014AE050E085E725
:1001E00091E00E9426066CE471E085E791E00E94B0
:1001F0007A05809164019091650197FD039695952C
:1002000087959595879590936B0180936A0180916E
:1002100062019091630197FD039695958795959559
:100220008795909369018093680180916001909116
:10023000610197FD03969595879595958795909380
:100240006701809366016EE271E085E791E00E94AC
:100250007A0560916A0170916B014AE050E085E790
:1002600091E00E9426066BE171E085E791E00E9433
:100270007A0560916801709169014AE050E085E774
:1002800091E00E94260665E271E085E791E00E9418
:100290007A0560916601709167014AE050E085E758
:1002A00091E00E9426066BE471E085E791E00E94F0
:1002B0007A0560916A0170916B018AE00E945B028D
:1002C000609168017091690189E00E945B02609110
:1002D0006601709167018BE00C945B021F920F9294
:1002E0000FB60F9211242F933F938F939F93AF9349
:1002F000BF9380916D0190916E01A0916F01B091BB
:10030000700130916C0123E0230F2D3720F401960A
:10031000A11DB11D05C026E8230F0296A11DB11D28
:1003200020936C0180936D0190936E01A0936F01F7
:10033000B09370018091710190917201A09173014D
:10034000B09174010196A11DB11D8093710190932C
:100350007201A0937301B0937401BF91AF919F910B
:100360008F913F912F910F900FBE0F901F90189576
:100370003FB7F8948091710190917201A09173013F
:10038000B091740126B5A89B05C02F3F19F00196C6
:10039000A11DB11D3FBF6627782F892F9A2F620FAD
:1003A000711D811D911D42E0660F771F881F991FE7
:1003B0004A95D1F70895CF92DF92EF92FF92CF93B3
:1003C000DF936B017C010E94B801EB01C114D104E1
:1003D000E104F10489F00E943E060E94B8016C1B02
:1003E0007D0B683E734090F381E0C81AD108E108A4
:1003F000F108C851DC4FEACFDF91CF91FF90EF9029
:10040000DF90CF900895789484B5826084BD84B5E0
:10041000816084BD85B5826085BD85B5816085BDFF
:10042000EEE6F0E0808181608083E1E8F0E0108218
:10043000808182608083808181608083E0E8F0E059
:10044000808181608083E1EBF0E080818460808343
:10045000E0EBF0E0808181608083EAE7F0E080817A
:1004600084608083808182608083808181608083DA
:100470008081806880831092C10008958E3008F0DA
:100480008E5087702091000190E4299F90011124E3
:10049000822B80937C0080917A00806480937A0024
:1004A00080917A0086FDFCCF8091780020917900C0
:1004B00090E0922B08951F93CF93DF93182FEB01B9
:1004C00061E00E94E302209711F460E004C0CF3F96
:1004D000D10539F461E0812FDF91CF911F910C9408
:1004E0001C03E12FF0E0E859FF4FE491E330F9F00D
:1004F00048F4E130B9F0E230A1F584B5806284BD02
:10050000C8BD34C0E730E9F0E83019F1E43049F50E
:1005100080918000806280938000D0938B00C09394
:100520008A0024C084B5806884BDC7BD1FC0809187
:100530008000806880938000D0938900C0938800F9
:1005400015C08091B00080688093B000C093B30064
:100550000DC08091B00080628093B000C093B40061
:1005600005C0C038D1050CF0B5CFAFCFDF91CF912A
:100570001F910895833081F028F4813099F0823002
:10058000A1F008958730A9F08830B9F08430D1F413
:10059000809180008F7D03C0809180008F77809351
:1005A0008000089584B58F7702C084B58F7D84BDA7
:1005B00008958091B0008F7703C08091B0008F7D47
:1005C0008093B0000895CF93DF9390E0FC01E4584E
:1005D000FF4F2491FC01E057FF4F8491882349F19C
:1005E00090E0880F991FFC01E255FF4FA591B4914F
:1005F0008C559F4FFC01C591D4919FB7611108C0E4
:10060000F8948C91209582238C93888182230AC050
:10061000623051F4F8948C91322F309583238C936F
:100620008881822B888304C0F8948C91822B8C93D0
:100630009FBFDF91CF9108950F931F93CF93DF93C7
:100640001F92CDB7DEB7282F30E0F901E859FF4FF0
:100650008491F901E458FF4F1491F901E057FF4FDD
:1006600004910023C9F0882321F069830E94BA0213
:100670006981E02FF0E0EE0FFF1FEC55FF4FA591D1
:10068000B4919FB7F8948C91611103C010958123A8
:1006900001C0812B8C939FBF0F90DF91CF911F9151
:1006A0000F910895FC01818D228D90E0805C9F4F19
:1006B000821B91098F7399270895FC01918D828D7A
:1006C000981731F0828DE80FF11D858D90E0089527
:1006D0008FEF9FEF0895FC01918D828D981761F047
:1006E000828DDF01A80FB11D5D968C91928D9F5F69
:1006F0009F73928F90E008958FEF9FEF08958FEE94
:1007000094E0892B49F080E090E0892B29F00E9449
:10071000EF0481110C9400000895FC01848DDF0129
:10072000A80FB11DA35ABF4F2C91848D90E0019664
:100730008F739927848FA689B7892C93A089B18953
:100740008C9180648C93938D848D981306C002885D
:10075000F389E02D80818F7D80830895CF93DF938F
:10076000EC01888D8823C9F0EA89FB89808185FDA9
:1007700005C0A889B9898C9186FD0FC00FB607FC0A
:10078000F5CF808185FFF2CFA889B9898C9185FF4B
:10079000EDCFCE010E948D03E7CFDF91CF91089579
:1007A000CF92DF92FF920F931F93CF93DF931F920D
:1007B000CDB7DEB76C0181E0D60158968C9358977F
:1007C0005B969C915B975C968C915C97981307C0A5
:1007D0005096ED91FC915197808185FD2EC0F601D8
:1007E000038D10E00F5F1F4F0F731127F02EF601DE
:1007F000848DF81211C00FB607FCF9CFD6015096C0
:10080000ED91FC915197808185FFF1CFC6016983FD
:100810000E948D036981EBCF838DE80FF11DE35AB0
:10082000FF4F6083D6015B960C935B975296ED91D8
:10083000FC915397808180620CC0D6015696ED9151
:10084000FC91579760835096ED91FC915197808170
:100850008064808381E090E00F90DF91CF911F91C1
:100860000F91FF90DF90CF900895BF92CF92DF92CB
:10087000EF92FF92CF93DF93EC016A017B01B22EDE
:10088000E889F98982E08083411581EE5807610586
:100890007105A1F060E079E08DE390E0A701960199
:1008A0000E943F062150310941095109569547954B
:1008B00037952795211580E1380798F0E889F9895F
:1008C000108260E874E88EE190E0A70196010E9432
:1008D0003F062150310941095109569547953795F1
:1008E0002795EC85FD853083EE85FF852083188E66
:1008F000EC89FD89B082EA89FB89808180618083EF
:10090000EA89FB89808188608083EA89FB8980810C
:1009100080688083EA89FB8980818F7D8083DF9175
:10092000CF91FF90EF90DF90CF90BF9008951F92EE
:100930000F920FB60F9211242F938F939F93EF93E3
:10094000FF93E0918501F09186018081E0918B0118
:10095000F0918C0182FD12C0908180918E018F5F99
:100960008F7320918F01821751F0E0918E01F0E09A
:10097000EB58FE4F958F80938E0101C08081FF91CF
:10098000EF919F918F912F910F900FBE0F901F901D
:1009900018951F920F920FB60F9211242F933F9329
:1009A0004F935F936F937F938F939F93AF93BF9377
:1009B000EF93FF9385E791E00E948D03FF91EF9104
:1009C000BF91AF919F918F917F916F915F914F9167
:1009D0003F912F910F900FBE0F901F90189585E7B4
:1009E00091E00E94520321E0892B09F420E0822F3C
:1009F0000895109278011092770188EE93E0A0E0BC
:100A0000B0E08093790190937A01A0937B01B09339
:100A10007C0183E591E0909376018093750185ECEC
:100A200090E0909382018093810184EC90E0909318
:100A300084018093830180EC90E090938601809301
:100A4000850181EC90E0909388018093870182EC8E
:100A500090E090938A018093890186EC90E09093D6
:100A60008C0180938B0110928E0110928F01109255
:100A70009001109291010895CF92DF92EF92FF9230
:100A80000F931F93CF93DF937C016A01EB0100E08A
:100A900010E00C151D0571F06991D701ED91FC91E5
:100AA0000190F081E02DC7010995892B19F00F5FA6
:100AB0001F4FEFCFC801DF91CF911F910F91FF9092
:100AC000EF90DF90CF9008956115710581F0DB0103
:100AD0000D900020E9F7AD0141505109461B570B1D
:100AE000DC01ED91FC910280F381E02D099480E01E
:100AF00090E008950C946405DC01ED91FC91019067
:100B0000F081E02D09948F929F92AF92BF92CF9285
:100B1000DF92EF92FF920F931F93CF93DF93CDB7A6
:100B2000DEB7A1970FB6F894DEBF0FBECDBF7C0134
:100B3000C42EE52FCB01D22E19A221E02D1510F0E5
:100B40002AE0D22E8E010F5D1F4F8D2C912CA12CEF
:100B5000B12C6C2D7E2FA50194010E943F068C2D97
:100B6000D29E80191124015011098A3014F4805D3D
:100B700001C0895CF80180832115310541055105CB
:100B800021F0C22EE32FCA01E4CFB801C7010E94B1
:100B90006405A1960FB6F894DEBF0FBECDBFDF91FE
:100BA000CF911F910F91FF90EF90DF90CF90BF906A
:100BB000AF909F908F900895CF92DF92EF92FF9227
:100BC0000F931F93CF93DF93EC016A017B012115F3
:100BD000310579F4E881F9810190F081E02D642FED
:100BE000DF91CF911F910F91FF90EF90DF90CF9009
:100BF00009942A303105E9F477FF1AC06DE20E94AA
:100C00007C058C0144275527BA014C195D096E09F2
:100C10007F092AE0CE010E948305800F911FDF919A
:100C2000CF911F910F91FF90EF90DF90CF9008959B
:100C30002AE0B701A601CE01DF91CF911F910F915C
:100C4000FF90EF90DF90CF900C9483059A01AB0159
:100C5000662757FD6095762F0C94DC0508950E9459
:100C600003020E942E060E948700CFE7D3E00E9475
:100C70009C002097E1F30E947F03F9CF0895A1E241
:100C80001A2EAA1BBB1BFD010DC0AA1FBB1FEE1F06
:100C9000FF1FA217B307E407F50720F0A21BB30B51
:100CA000E40BF50B661F771F881F991F1A9469F7CD
:100CB00060957095809590959B01AC01BD01CF0129
:100CC0000895EE0FFF1F0590F491E02D0994F8941C
:020CD000FFCF54
:100CD200015261772053656E736F722056616C7595
:100CE2006573200A205265643A20000A2047726523
:100CF200656E3A20000A20426C75653A20004D610B
:100D0200707065642053656E736F722056616C75E6
:100D12006573200A205265643A20000A0A0A00001C
:100D2200000000D0033C0552036B035D03AE0300D9
:107E0000112484B714BE81FFF0D085E080938100F7
:107E100082E08093C00088E18093C10086E0809377
:107E2000C20080E18093C4008EE0C9D0259A86E02C
:107E300020E33CEF91E0309385002093840096BBD3
:107E4000B09BFECF1D9AA8958150A9F7CC24DD24C4
:107E500088248394B5E0AB2EA1E19A2EF3E0BF2EE7
:107E6000A2D0813461F49FD0082FAFD0023811F036
:107E7000013811F484E001C083E08DD089C08234E0
:107E800011F484E103C0853419F485E0A6D080C0E4
:107E9000853579F488D0E82EFF2485D0082F10E0AE
:107EA000102F00270E291F29000F111F8ED06801E7
:107EB0006FC0863521F484E090D080E0DECF843638
:107EC00009F040C070D06FD0082F6DD080E0C81688
:107ED00080E7D80618F4F601B7BEE895C0E0D1E017
:107EE00062D089930C17E1F7F0E0CF16F0E7DF06D8
:107EF00018F0F601B7BEE89568D007B600FCFDCFD4
:107F0000A601A0E0B1E02C9130E011968C91119780
:107F100090E0982F8827822B932B1296FA010C0160
:107F200087BEE89511244E5F5F4FF1E0A038BF0790
:107F300051F7F601A7BEE89507B600FCFDCF97BE46
:107F4000E89526C08437B1F42ED02DD0F82E2BD052
:107F50003CD0F601EF2C8F010F5F1F4F84911BD097
:107F6000EA94F801C1F70894C11CD11CFA94CF0C13
:107F7000D11C0EC0853739F428D08EE10CD085E9AC
:107F80000AD08FE07ACF813511F488E018D01DD067
:107F900080E101D065CF982F8091C00085FFFCCF94
:107FA0009093C60008958091C00087FFFCCF809118
:107FB000C00084FD01C0A8958091C6000895E0E648
:107FC000F0E098E1908380830895EDDF803219F02E
:107FD00088E0F5DFFFCF84E1DECF1F93182FE3DFCA
:107FE0001150E9F7F2DF1F91089580E0E8DFEE27F6
:047FF000FF270994CA
:027FFE00040479
:0400000300007E007B
:00000001FF
